:10100000283703200111000067A70300619A05003B
:1010100067A7030067A7030067A70300000000009D
:1010200000000000000000000000000067A70300AF
:1010300067A703000000000067A7030067A703007D
:1010400059110000C111000067A7030099120000A8
:1010500067A7030067A7030065AC03004112000007
:101060008D12000067A7030067A703003512000078
:1010700067A70300CD11000067A7030067A703005F
:1010800067A703003DAD030067A7030067A7030040
:10109000AD11000067A7030067A7030067A703005F
:1010A00067A7030067A7030067A7030067A70300FC
:1010B00067A7030067A7030000000000000000000E
:1010C00067A7030067A7030067A7030067A70300DC
:1010D00067A7030067A7030067A70300E5120000E6
:1010E00067A7030067A7030067A7030000000000CD
:1010F0000000000067A703000000000067A70300CE
:1011000039F034FB0E480F490022814201D004C05F
:10111000FBE70D480D490E4A814202D008CA08C0BB
:10112000FAE70C484FF47001026842EA01020260DB
:10113000BFF34F8FBFF36F8F36F0C8FB00DE0000A8
:10114000E058032008F8032028370320DC58032048
:10115000904C060088ED00E0B0B502AF52F0C2FB43
:10116000104C206828B1002020600F4820303AF051
:1011700011F9606850B10C4D0020606005F120004D
:101180003AF008F905F138003AF004F9A06838B1EE
:101190000020A06004483830BDE8B0403AF0FAB80A
:1011A000B0BD00BF1C0100405CE5032080B56F4668
:1011B0000248BDE880403AF0EDB800BF70D403208B
:1011C00080B56F46BDE8804053F01EBFF0B503AF59
:1011D0004DF804BD144E002030603BF0FBF8134D79
:1011E00004462868E0B94FF0FF302860E86870B125
:1011F000296988420BD0D6F808140170D5E903019B
:101200000130E860884204BF281D3AF097F844F0A6
:1012100065FB20465DF804BBBDE8F0403BF010B92B
:10122000034839F05DF900BF00D100403CE60320DF
:10123000B813060080B56F46BDE8804054F080BD0D
:10124000D0B502AF0F4C206930B11020C4F80802AD
:101250000D4830303AF09EF8606830B10220C4F892
:101260000802094830303AF095F8206840B1012072
:10127000C4F8080204483030BDE8D0403AF08AB8DB
:10128000D0BD00BF007100405CE5032080B56F4613
:10129000BDE8804053F0ACBED0B502AF0F4C606CDF
:1012A00038B10F4840303AF075F84FF48020C4F858
:1012B0000402206830B10A4840303AF06BF802204E
:1012C000C4F80402206A38B1054840303AF062F8A8
:1012D0004FF40070C4F80402D0BD00BF04310040D8
:1012E0005CE50320F0B503AF4DF8048D84B0344CB9
:1012F000206858B1334D0120C4F8080205F12000E0
:101300003AF048F805F128003AF044F8E06D38B1B9
:101310004FF40000C4F808022A4828303AF03AF89E
:10132000A06A38B14FF48060C4F80802254828301C
:101330003AF030F8A06D28B10020A0652148203097
:101340003AF028F8206EB8B300202066D4F86C6319
:101350001C48C4F86C63BFF35F8F50E8041F31432F
:1013600040E80412002AF8D10020BFF35F8F8DF807
:101370000C0007200DF10408029001200190404666
:1013800033F06DFC012817D101F01F040D4626FA39
:1013900004F0C00704D028462CF030F839F0FAFFEA
:1013A00084F0100026FA00F0C007E8D028462DF09F
:1013B000B5FC39F0EFFFE2E704B044F04FB900BFED
:1013C000007102405CE50320B0B502AF43F08DFE32
:1013D0000C4A44F044FE00044E216FF06042121BA0
:1013E000A94138BF40F20120010604BF000CB0BD86
:1013F000054839F0DFF905F0C1FA39F043FB39F05F
:101400008FFA00BF00204E00E4000000B0B502AF2C
:1014100043F06BFE0C4A44F022FE000404216FF0FE
:10142000F052121BA94138BF40F20120010604BF4F
:10143000000CB0BD054839F0BDF905F09FFA39F050
:1014400021FB39F06DFA00BF00E20400E400000067
:10145000B0B502AF43F049FE0C4A44F000FE000470
:1014600009216FF07052121BA94138BF40F20120D0
:10147000010604BF000CB0BD054839F09BF905F02A
:101480007DFA39F0FFFA39F04BFA00BF00C40900C9
:10149000E4000000F0B503AF2DE9000F9BB0D0E9E8
:1014A000014B814608460E46A4EB0B0542F094FB27
:1014B000854201D2002073E23046D9F8005042F054
:1014C0008BFBDFF808152A46009100EB0B0158460C
:1014D000234640F0E7F93278FF2A1CD13279FF2AFF
:1014E0003BD145F0BDF93089012812A814BF1B215A
:1014F0001D2140F013FAC0B2022840F048827189E1
:1015000012A840F02BFAC0B2022840F04082D6E97F
:10151000031212A8C4E1B2F10A044FF0000398BF0D
:101520001C46002C33D0012C46D145F099F912A865
:10153000522140F0F3F9C0B2022840F02882B1896C
:1015400012A840F00BFAC0B2022840F02082D6E97F
:10155000011212A841F072FB34E0CDE9090100202C
:101560000B90DFE812F0090034015900140131003A
:101570006B0193013101A00109A8032140F0CEF9CC
:10158000C0B2022840F00382F18809A8F9E112AC48
:101590000A2A0BC400F21482DFE812F00B008D015E
:1015A000A701AA01DA01BB01E30112021202120231
:1015B0008A0112A8102180E145F052F912A81E21DB
:1015C00040F0ACF9C0B2E2E109A8092140F0A6F967
:1015D000C0B2022840F0DB81746909A8214640F0BE
:1015E0009DF9C0B2022840F0D28144F0E9F912A876
:1015F000294642F04BFA9DF84800FF2840F0C6818A
:1016000044F071FAC0B2022840F0C18144F00CFFEE
:10161000C0B20228EBD0BAE109A8052140F07EF95A
:10162000C0B2022840F0B381357D09A8294640F0B8
:1016300075F9C0B2022840F0AA81D6E90220CDE9AE
:101640000E2031698DF8445010910EAC401AE9B269
:101650004FF0100A012908BF4FF0020A0AF10201F7
:101660008842C0F09381204640F022FA0546C00728
:1016700040F09F8112A82146524642F03DFA12984E
:10168000002800F096811399022924D004291AD049
:10169000102928D1C2684FF0020881880792C27AC7
:1016A000ADF8681001680892827A02925FFA81FCB4
:1016B000427A0392027A199101210492C2798079C7
:1016C0000592069012E0D0F800C04FF00108CDF866
:1016D00064C001210AE0B0F800C00121ADF864C087
:1016E0004FF0000802E0CDF866100021002900F05C
:1016F0005A81079BA2460C93290C9DF860308DF807
:101700003430089B8DF85430029B8DF85330039B86
:101710008DF85230049B9DF868008DF85130059B80
:101720009DF869209DF865E09DF866509DF867403A
:101730008DF85030069B8DF84D000C988DF84F3089
:101740008DF84E208DF84C408DF84B508DF84AE0C6
:101750008DF849C08DF84880CDF8550009AC204679
:1017600040F0FCF8C0B2022840F0118112A840F00D
:10177000A5F843F07CFA41F061FAC0B2022840F0CB
:101780000681DDE90F0154469DF844505EE709A843
:10179000012140F0C3F8C0B2022840F0F88071790E
:1017A00009A840F0BBF8C0B2022840F0F0803189AF
:1017B00009A840F0D3F8C0B2022840F0E880B1791F
:1017C00009A840F04FF8DEE009A80D2160E009A863
:1017D000072140F0A3F8C0B2022840F0D880316958
:1017E0000DF148080DF1240AD6E902201491CDE943
:1017F0001220401A0428C0F0C980404640F058F931
:101800000546C00740F0C280404640F051F904460A
:10181000C00740F0BB80290C504640F09FF8C0B292
:10182000022840F0B480210C504640F097F8C0B236
:10183000022840F0AC80DDE91301DAE709A81121A4
:1018400040F06CF8C0B2022840F0A180746909A889
:10185000214640F063F8C0B2022840F0988044F07E
:10186000AFF812A8294642F011F99DF84800FF2868
:1018700040F08C8044F037F9C0B2022840F08780F5
:1018800044F0D2FDC0B20228EBD080E009A80B21C1
:1018900040F044F8C0B2022879D1D6E9021209A872
:1018A00041F0CCF96FE009A8132140F037F86AE065
:1018B00012A80C2157E012A8082140F02FF8C0B25E
:1018C000022864D1718A12A840F048F8C0B20228F8
:1018D0005DD1B18A12A840F041F8C0B2022856D1B9
:1018E000711C12A841F0C6FE4DE012A80A2131E099
:1018F00012A8122140F012F8C0B2022847D1718814
:1019000012A840F02BF8C0B2022840D1D6E901124B
:10191000FFE512A8062140F001F8C0B2022836D136
:10192000718812A840F01AF8C0B202282FD1B188ED
:1019300012A840F013F8C0B2022828D1F18812A8EA
:1019400040F00CF8C0B2022821D1D6E90212E0E53D
:1019500012A802213FF0E2FFC0B2022817D171881D
:101960000EE012A804213FF0D9FFC0B202280ED128
:10197000718812A83FF0F2FFC0B2022807D1B188E7
:1019800012A83FF0EBFFC0B2022800D102200228CB
:1019900006D1304642F020F95844C9F80800022028
:1019A0001BB043F0E8BC0798CDF85D0008988DF8AF
:1019B0005C009DF860008DF8340017980C90E5E706
:1019C00003480F21034A38F02AF900BFD82906003E
:1019D0007832060098320600F0B503AF4DF804BD2A
:1019E00084B00446D0E901300D46191A04290CD3FD
:1019F0002268061D084943F070FBCDE9020102A8E8
:101A0000294604222DF04CF908B1002001E0022003
:101A1000A66004B043F0ACBCDCC0050080B56F46E6
:101A20000021017301490131016080BD5CE50320A3
:101A300080B56F4642F23402815010440021417358
:101A400080BDD4D4E0B502AFDFF880C004460025E5
:101A500047F2E87040F2011285422FD02B186544FE
:101A600005F1180656E8001F21B946E800210029B3
:101A7000F8D103E0BFF32F8F1D46EDE714486862ED
:101A800005F128002146FFF7D3FF2046294639F00B
:101A900091F80025BFF35F8F54E8000F44E8005130
:101AA0000029F9D1BFF35F8F30B1C669C5614576B2
:101AB000416A88473046F7E720BFEBE705487A1EC2
:101AC00000902B210448054B38F059FD485A03205B
:101AD00095970200CCC00500362B060054EB05009C
:101AE000F0B503AF2DE9000B94B00446F8680DF192
:101AF0003C0843F0FFFF9DF83C00FF2803D040F670
:101B0000032020801DE0A7F14E0008F10401851C90
:101B100043F0ADF902A82946861C43F084F80BADCA
:101B2000314643F0A4F944F0B6FC2078FF2808D0F1
:101B300044F032FE044838F03DFE43F0A3FD38F097
:101B4000A1FF14B043F08BBC59010000F0B503AF06
:101B50002DE9000FCDB0FE68D7F80880CDE91D2033
:101B600056F870AFD8F84400C346CDF8AB00C14674
:101B70005BF8410FD6F808E02A90D8F83D001293A0
:101B800016917268F568D6F810C07369B169F46986
:101B9000CDF8CB0059F83A0F2192CDF870E01B95A3
:101BA000CDF868C0199320911F94329032A88DE827
:101BB000120454460DF1F80ACDE9032E624605954C
:101BC0002AA9CDE90610A6F13001504629F036FDCC
:101BD00022A89AE82E002EC04298119043981090A7
:101BE00044980F9045980E90306A1890706A17903C
:101BF00008F14E00D6E90AA542F04FFC20F07F40E4
:101C0000CDE90A0B209800901F98CDE90104219896
:101C100003901C98CDE908A5049005461B98CDF8C3
:101C200054B005908346189806901798CDF84C90BC
:101C3000CDF830901494079026A822A91A9A199BDF
:101C40009146984629F01EFC1D98102804D126A81C
:101C5000169931F043F830B11E99FF20087040F614
:101C6000033088805EE0D6E90C40D7F808A01D90CC
:101C7000B06B18900AF14800F66B42F00EFC20F0B1
:101C80007F400A9013980B9015980C902098049020
:101C90001F981899CDE905041D98CDE90816CDE9DE
:101CA000005BCDE9029807902AA822A9149A219BEB
:101CB00029F0E8FBDDE92C01DDE92A23CDE900016B
:101CC0003EAC204605F07AFC9DF8F850FF2D0AD076
:101CD000611C32AC43F0C3F81E9E214643F00AFB60
:101CE0003571FF201DE00DF1C809211D09F1030523
:101CF00043F0BDF82EAE294642F095FF129C0DF13F
:101D0000F8083246404621462DF0D8F89DF8F850A4
:101D1000FF2D0AD01E9E08F1010143F0EBFAFF20CF
:101D2000357130704DB043F070BA9AF83800022324
:101D30009AF84A100DF1F8089AF85020022801F09C
:101D4000030008BF012302F0030180F0010081F0CD
:101D5000010108430F990091B0FA80F00E994009F3
:101D6000CDE901132146DDE91032039040462DF004
:101D7000D9F89DF82161022E09D198E86E004846F5
:101D80006EC01E9E99E83E00301D3EC0A9E732ACF1
:101D90003EA9292243F03FFABDF826012146ADF8BD
:101DA00030012922DDF822014B903EAD43F030FA9C
:101DB0005046294644F0C9FC4B981E99CAF82A009F
:101DC000BDF83001AAF82E000A208AF829600870B0
:101DD000A8E7D4D4102B7DD1F0B503AF2DE9000FC7
:101DE0009DB009908846F868137800F16006D2F833
:101DF0000100D2F80540D2F8095043EA002C3969B5
:101E00002B0243EA1463240244EA1060D47BB2F844
:101E10000D20C6E900C042EA0442120242EA1562FD
:101E2000C6E9023218A803F055F806F1300A1898EE
:101E300006F11003F66B1A9A08F07F041999DDF881
:101E40006CB0069283E80708A4F14002079131467E
:101E500008909AE82006504657F0DEFACDF8148034
:101E6000804628464946224657F0D6FAC4F1400239
:101E7000814650463146D7F80CA057F008FC0AF1CD
:101E8000200103910699402CCDE901BA009138BF99
:101E900049EA00082948002C08BFA84644F049FC3C
:101EA0000AA8DDE9073229F051FBDDE90C01DDE983
:101EB0000A23CDE9000118AC204605F0B9FA9DF8D7
:101EC0006050FF2D0CD0611C0FAC42F0C8FF099E82
:101ED00021461FE0FF21017040F6032181807047F9
:101EE000DDF814900FA8C61C211D1022D7F8088019
:101EF00043F094F914AD314642F0B9FF18AC4146B5
:101F00002A4620462CF0DAFF9DF86050FF2D09D0BC
:101F1000099E611C43F0EEF9FF20357130701DB051
:101F200043F073B9099C5146B02204F1080057F000
:101F3000BDF90620C4F804902070F0E7C0FFFF7FD1
:101F4000F0B503AF2DE9000B94B00446F8680DF12D
:101F50003C0843F0CFFD9DF83C00FF2803D040F63D
:101F6000032020801DE0A7F14E0008F10401851C2C
:101F700042F07DFF02A82946861C42F054FE0BADBC
:101F8000314642F074FF44F086FA2078FF2808D0EA
:101F900044F002FC044838F00DFC43F073FB38F0C9
:101FA00071FD14B043F05BBA5A010000F0B503AF05
:101FB0002DE9000F9FB08246880701D411206CE004
:101FC000D56B934605F108030FCB43F009FE11BF13
:101FD0008DE80F000020CDE90200CDE9000016AE2B
:101FE0006946304605F01AFB9DF85840FF2C3DD15C
:101FF00011A8311D00F10308102243F042FC0AAE83
:10200000414642F010FE0DF158095946324644F05F
:10201000A5FB9DF85840FF2C30D12868C10741D05E
:102020006968000A0A0E8DF83E200A0A40EA01603B
:10203000ADF83C200E9016AE0EA9304605F038FBE8
:102040009DF85840FF2C11D1311D404643F001FA54
:102050001BAE414642F0E7FD05A8594632462CF03A
:102060002DFF9DF81440FF2CA8D00DE011AD711C80
:10207000132243F0CDF805A8294602E005A809F18E
:102080000101013043F0CDF805A90AF10500013145
:1020900043F0C7F8FF208AF804408AF800001FB018
:1020A00043F0B3B80524EFE7F0B503AF2DE9000F17
:1020B0008BB0044602A80E460021924605F08EF928
:1020C0009DF80800FF281DD09DF80B10E170BDF8A9
:1020D00009109DF81B20DDE903C5A4F80110BDF827
:1020E0001910059E9DF81830ADF81C108DF81E20B3
:1020F0002374C4E901C5E660A4F81110E2742070ED
:1021000042F0B9BF9DF818B0059DBDF81900ADF8B3
:10211000040059469DF81B008DF806002846DDE9AD
:10212000038927F051FB02460B4606F14800114691
:102130001A4642F06BFAC0B202281CD1BDF8040066
:102140005146ADF829009DF806008DF828B0099594
:10215000CDE907898DF82B0002AD07AA28462CF09F
:10216000ADFE9DF80860FF2E10D0601C691C43F086
:1021700058F82670C4E705204946207040460BB049
:10218000BDE8000FBDE8F04042F016BAFF20B6E708
:10219000F0B503AF2DE9000F9FB00D46B968069367
:1021A00014460B901AA802F095FE1A9804F17006D6
:1021B0001C9A05F07F0504F1900B1B991D9B0FC61F
:1021C0000892A5F140020A909BE8400E5046099102
:1021D0005946079357F020F98046304649462A462B
:1021E00057F01AF9C5F1400281465046594657F05A
:1021F0004EFA04F12001402DCDE9024107990191E9
:102200000899009138BF49EA00082448002D08BF0A
:10221000B04644F08EFA0CA8DDE9093229F096F9AF
:10222000DDE90E01DDE90C23CDE900011AAC204601
:1022300005F0FEF89DF86850FF2D0BD0611C11AC25
:1022400042F00DFE0B9E21461322701C57F0FAF847
:1022500035701FE0DDF82C8011A8C51C211D42F04F
:1022600006FE16AE294642F0DEFC1AAC069932464E
:1022700020462CF023FE9DF86850FF2D07D008F172
:102280000100611C42F0CDFF88F8005002E0FF2001
:1022900088F800001FB042F0B8BF00BFC0FFFF7F4A
:1022A000F0B503AF2DE9000FB5B016461D46CDE9D8
:1022B0001210B046D6F83D000DF1A00C55F8702F65
:1022C000CDF8A30058F83A0F289056F8410FD5F8EA
:1022D00008906B68D5F80CA0D5F810E0D5F814B0CC
:1022E000AC69E9692C90D6F8030014921593CDF8E7
:1022F0006C90CDF868A0CDF864E0CDF860B017948C
:102300001691CDF8B3002CA88DE800460DF1800998
:10231000CDE9051CA5F1300107904846CDE903B48D
:1023200029F08CF91CA899E81E0005F1300B1EC09D
:10233000249811902598109026980F9027980E9029
:10234000F01D9BE8100AD5F83CA042F0A6F820F05A
:102350007F40CDE90A08DDE91A10CDE908BA0C96EC
:10236000CDE90001199802901898039017980490ED
:10237000169805A981E8110228A81CA9DDE91423F3
:1023800029F080F8DDE928230DF18009DDE92A0133
:10239000CDE90001484605F011F99DF88060FF2E57
:1023A0000ED02CAC09F1010142F059FD139D2146DC
:1023B0001322681D57F046F8FF202E71287051E057
:1023C000DDF84C802CA8C61C09F1040142F02BFC5E
:1023D00031AC314642F047FD0DF180091299224699
:1023E00044F0BCF99DF88040FF2C0BD008F10500AB
:1023F00009F1010142F015FFFF2088F8044088F838
:1024000000002FE005F1200B464608F11804ED6AA4
:102410009BE8000D09F107001CA943F01AF80B20F6
:10242000494606F8010B172242F0F8FE199804F10C
:102430002C012062189860621798A0621698E563D4
:1024400081E8010D11982060109860600F98A060DD
:102450000E98E06014982061159860611B98A06147
:102460001A98E06135B042F0D0BED4D4F0B503AFD5
:102470002DE9000F8BB004460220ADF80A000120C0
:102480008DF808001E462C4888468DF809200390D8
:1024900007A842F047F8079DEDB3DDE9089BFB2054
:1024A000D7F808A0CDE904B00020069004A803A93D
:1024B000FFF792FAC0B202281CD104A802A9FFF7C4
:1024C0008BFAC0B2022815D1DDE90530191A0229AC
:1024D0000ED3049A19490091811C01913FF0E2F951
:1024E000CDE9070107A8314602222CF0D9FBB0B193
:1024F000042004E0C0074FF0040018BF0D200121A4
:1025000020706170284649460BB0BDE8000FBDE859
:10251000F04042F051B81620207042F0ACBD019856
:1025200051460A9007A880E8200A07AB2046424699
:1025300027F02AFFF1E700BF06000500DCC0050018
:10254000DCB504AF10CBB831009428F04AFFDCBDF5
:1025500091F8673201F5A872012B12BF91F856115C
:1025600002F58C720121A0B1D0B502AF9388B0F80A
:10257000154112686340D0F8114162401A4390F847
:1025800017315940C90718BF0020002A18BF002082
:10259000D0BD00207047D4D4F0B503AF2DE90007BB
:1025A00094B002AD88468146482143F013FAD8F82A
:1025B0000C404826334B2946482C38BF2646304627
:1025C000482240F069FB0546D8F808008A462146B3
:1025D0002AF0E8FB8E424FD803462B4800901A465B
:1025E00028465146334635F075F9022C09D22D485C
:1025F00038F0E0F8304638F0CFF838F043FA0A20E7
:1026000019E09DF80800441EE5B20E2D12D22046B6
:10261000A6F1010A27F0F6FA80B2824519D109F134
:10262000010002A9482256F00DFFC9F84C6089F854
:10263000004008E0072089F80500032089F804001D
:10264000FF2089F8000043F051FC14B0BDE80007FA
:10265000F0BD0E4838F0AEF80D480E4CA0470E48BD
:10266000A0470E480E4950F8250051F8251036F0C5
:1026700067F80020A047C0E70B4B0A460020314610
:1026800037F08EFA2CC205004CC205004F01000045
:102690001500000073A7030089020000C037060080
:1026A00088370600500100003CC20500F0B503AFBA
:1026B0002DE9000F95B01C788046FF2C15D04448BA
:1026C0001D4616468A4693F801B038F073F8414823
:1026D00038F04FF8284640F095F8032C18BF4FF01B
:1026E000080B38F0CFF9192C05D1FF2088F800002D
:1026F00015B042F08ABDB6F858420FA841F012FF5B
:102700000F98002845D0A7F143000094C51C0FA9DD
:102710000C2242F07DFDA7F152002946C61C0C2276
:1027200042F07CFD12AD31460C2242F071FD02A850
:102730002946042227F05AF89DF80800DDE90354E1
:102740009DF81860FF28DDF8149023D148463146E3
:1027500027F03AF8C9B380F800B0304627F02CF8DB
:10276000CDE904904046CDE9025402AD009A5146AD
:102770002B4627F009FE98F80000FF28B5D043F05B
:1027800070FF154838F016F843F08FF838F07AF9F2
:10279000AEE716209DF80B1088F80310BDF809105D
:1027A0009DF81B20A8F80110BDF81910ADF8041011
:1027B0008DF8062088F81060C8E90154C8F80C901C
:1027C000A8F8111088F8132090E7044A42F090F915
:1027D00048010000660200004D0100006CC20500C7
:1027E000F0B503AF4DF8048D92B00DF104080D461D
:1027F00006461146404644221C4656F09DFEB868E7
:102800002946009030464246234600F005F812B0B3
:102810005DF8048BF0BDD4D4F0B503AF2DE9000F03
:10282000ADF29C6D0D46014605F1D0001690DCAE70
:1028300095F8C84006F1600B05F1780A9946904674
:10284000022CCDE918155DD11AAE2946C82244F0F4
:102850000CF815209DF8681028710E2028700C299E
:1028600098F8000000F23583DCAA02F17004DFE87A
:1028700011F00D00AA0163014B01F1003001FD01CF
:1028800030039802E8023003CD02CC00FF2804BFD9
:1028900098F80C10002900F02E87411E0329C0F083
:1028A000DA82002840F0118398F80100002801F036
:1028B00063800DF59F68494640462CF030FC9DF83A
:1028C0002165FF2E01F06287DCAC0DF59F612922A6
:1028D00042F0A1FCDDF82205214688902922BDF8AE
:1028E0002605ADF8240205F1D00056F0ABFD88981E
:1028F000C5F8FA00BDF8240285F8F960A5F8FE00D5
:1029000000F044BFCDF85C900DF50C792946C82243
:1029100043F021FF15209DF83012287112202870F5
:102920000F2998F8000000F28D851AAA02F16003C1
:10293000DFE811F01000A203F8027304A604880572
:102940007003C003FE03880581050A058805880514
:10295000DB027B03FF2804BF98F80C200A2A40F012
:102960007185D8F80800002802F06D8295F81901E9
:102970000C22D8F8041005F1D006032808BF08225D
:10298000DDF85CB0DBF8383093F8700293F8713200
:10299000024485F81A210C7813B1012185F8181129
:1029A0000DF59F6858B195F81C0195F81D1140F080
:1029B000030085F81C0141F0030185F81D111AA8D8
:1029C00059462CF0FEFBDDF860A09DF8910002282E
:1029D00007D0600741F186829DF89000022801F03F
:1029E0008182DCAC31465A462046FFF75DFB9DF8FC
:1029F0007063FF2E01F0CD8108F10500611C42F0EB
:102A000010FC8DF8FC6401F083BAFF2804BF98F82D
:102A10000C20082A40F01C82D8F80820002A02F076
:102A20001082D8F804000478DCAE022C80F0BF8756
:102A30000DF59F68062A42F2F68150F8011FC5F88D
:102A40001111818843F086FB01D043F08FF90D20EE
:102A500002F091B8FF2804BF98F80C10022900F08A
:102A60003486042800F23882DFE810F09D06F50174
:102A7000F50105009D0605F118010DF59F650DF5A1
:102A80009F60902200F19004284656F00FFC0DF54F
:102A90005C7A711C112243F0E3F80026D8F8040098
:102AA000C4E90006C4E904069DF87003C4E902669F
:102AB000C007C4E9066601F03C84B8680AF1010267
:102AC000CDE90095002102908CA81023FFF782F930
:102AD000C5E1FF2804BF98F80C20022A40F0B88115
:102AE0000DF59F6405F10801B022204656F0DEFB8B
:102AF000D8E90123A046B8681B99CDE9009402905B
:102B00008CA8FFF767F9ACE1042800F29C87DFE8A6
:102B100010F04A0605007407A2014A069DF86900F4
:102B2000002801F0388106F1180016991022CDE92D
:102B30000010B11C00F0FDBEFF2804BF98F80C2067
:102B4000032A40F08581CDF85C9005F108014CA87E
:102B5000702256F0ABFB9AE8400A05F1980120225A
:102B6000DAF80CA0C6A856F06DFC42F0A7FE40F0C3
:102B70004B87D8F804000DF59F6532464B46D0F8D8
:102B800009101591D0F805101491D0F80110139187
:102B900001781291C17B11911799B0F80D00109036
:102BA0002846CDE900BAFEF79BFF9DF8F884B8F1FE
:102BB000FF0F01F004828CA8691C42F038FA8DF8EE
:102BC000348200F025BFFF2804BF98F80C200B2AA0
:102BD00040F03E81D8E901120DF54678404641F0BB
:102BE000C7FBD9F82C10BEAC202242F014FBD9F858
:102BF00030104CAE4022CA4642F010FB0DF59F69E2
:102C0000214642463346484641F0E4FA9DF8F8042E
:102C1000C00700F000879DF8FB0409F106018DF85C
:102C200006021222BDF8F9049DF8FC449DF8FD64EB
:102C3000ADF804027CA856F005FC09F1180079A94A
:102C40000DF59F650CC80CC1007808704CA928468A
:102C500004F03AFC9DF8F804FF2801F0FD810A20F9
:102C60004FF003088DF8710301F021BAFF2804BF6B
:102C700098F80C20032A40F0EB8005F10801DCA84D
:102C800042F0F6FD42F01AFE40F0CE86D8F804007D
:102C90001B9DCDF85C90D0F801100278DBE90E980E
:102CA00042EA0122CBF820201592D0F80930D0F862
:102CB00005201C02119505F07F0544EA12641202FA
:102CC00042EA1161CBF82840CBF82410C5F140024C
:102CD0001491C17BB0F80D00139440EA01404146C5
:102CE000000240EA136A4846CBF82CA0DBE90C64EA
:102CF00056F0CDFC1290304621462A4656F08CFB09
:102D0000A5F1400204464846414656F085FB12991B
:102D1000402D38BF44EA0100E549002D08BF304688
:102D2000DCAA61F35F00139B02F12001CDE9003AB8
:102D3000CDE902120490BEA8DDE9143228F006FCA9
:102D4000DBE900ACDDE9BE648CEA0401DBE9028961
:102D5000DDE9C03589EA050008438AEA060288EA07
:102D600003011143084341F02880DBE904230DF5FA
:102D70009F64DBE90601CDE90001204604F07EFBFB
:102D80009DF8F864FF2E01F0D683611C4CAC42F034
:102D900066F88CA8214642F04AF98DF8346200F0BA
:102DA00037BEFF2804BF98F80C20032A50D105F144
:102DB0000801DCA842F05CFD42F080FD40F03C865A
:102DC000D8F8040004F1100542F02FFB0EC5B968D5
:102DD000E061204602F07EF8D4E90201D4E9002344
:102DE0000DF59F64CDE9000149462046FEF778FEC7
:102DF0009DF8F864FF2E01F06A818CA8611C42F0F6
:102E000016F98DF83462FF2001F09BBAFF2804BF49
:102E100098F80C20072A1BD142F050FD40F0348670
:102E200095F8F900DCAE022808D0D8F804000AF1C1
:102E3000680442F0FAFA0EC4CAF874000C2000F0DC
:102E400028BEFF2804BF98F80C200C2A00F06A85E1
:102E5000421E032A36D28CA81AA943F0FCFB0DF5BA
:102E60009F68DCAE9DF83002FF2800F0A1840DF5CC
:102E70000C7A0DF59F60C822514656F017FA9DF85E
:102E8000F8040E2800F09F84199D0D2840F0BE84A0
:102E9000C84695F8F990B9F1020F00F0B78495F89B
:102EA0001A0100F00300012802BF95F8200100F08C
:102EB0000300012800F0E08495F8F8E04FF00209E3
:102EC00000F008BD002800F05A84042804D100F066
:102ED0006ABCFF2840F0498498F80C00042800F0F0
:102EE000DA830D28B7D000F05EBCFF2804BF98F845
:102EF0000C20072A40F0A68242F0E0FC40F0588601
:102F0000DDF85CB095F8F900022808D0D8F8040084
:102F10000AF1680442F089FA0EC4CAF874000F205E
:102F200000F048BEFF2804BF98F80C200B2A40F0A0
:102F30008982BEAE09F1040120229A4642F06EF960
:102F400005F1240B0DF5467940224846594656F0C6
:102F500079FAD8E901124CAC204641F009FA0DF596
:102F60005C78314622464B46404641F033F99DF8A5
:102F70007003C00700F021869DF8730308F1060175
:102F80008DF8AA001222BDF87103ADF8A800BDF8B3
:102F900074431AAE06F1450056F054FA06F1570094
:102FA00008F1180142F059FE06F120004CA942F048
:102FB000C0F83046594642F0BCF850465021ADF8B2
:102FC000AB4056F01CF995F80801811E38BF02216C
:102FD000DDF85CB0C9B2022901F01381DDF860A010
:102FE000032941F032810F200DF55C788DF87003D4
:102FF00042F0CEFDD6AE42F0A4FD9DF85843FF2C22
:1030000041F0868308F107001AA942F09DFA0920D1
:1030100001F0DEBB98F80C10FF2808BF022900F071
:103020000D84FF2800F012825BE2FF2804BF98F8AD
:103030000C20082A40F00682D8F80820002A01F067
:103040000487D8F80400DDF85CB00478022C80F026
:10305000F3850DF59F68062A41F2E78650F8011FB7
:10306000C5F811118188DDF860A043F073F800F015
:10307000F18242F07BFEEDE2FF2840F0F78298F803
:103080000C100A2900F0A185012940F0DF81D8E960
:103090000112DCA841F0CAFA9DF87003022840F042
:1030A000A9860A20DDE917BA0DF59F6801F07EB9FF
:1030B000C0FFFF7FFF2804BF98F80C20022A40F0D1
:1030C000C18105F10801DCA8602256F0EFF89AE80A
:1030D000500605F188011AA8302256F0B3F942F0E3
:1030E000EDFB40F07B85D8F804000DF598788D99BC
:1030F0002246159133460168149141681391816805
:1031000012911799C06811904046CDE9009AFEF7D8
:1031100017FF9DF830B1BBF1FF0F01F048800DF5AE
:103120009F6243F02DFB42F07CF88DF8FCB407E27F
:10313000FF2804BF98F80C20032A40F0838105F192
:103140000801DCA842F094FB42F0B8FB40F04F8548
:103150008D985D46DBF830A0DBF8341000F07F047A
:10316000DBF838B0A4F14002D5F83C9014911390EC
:1031700058464946D8F80460CDF854A056F04CF9AA
:10318000149980465046224656F046F9C4F1400252
:1031900082465846494656F07AFAF368D6F80090C7
:1031A0007268D6F808B0DCA9039120310291402C56
:1031B0001493CDE900B338BF4AEA00081598002CF3
:1031C00008BF8046E34843F0B4FA90461AA84A463E
:1031D000434628F0BBF9D5E902E3DDE91A42D5E917
:1031E00000C1DDE91C605140584084EA0C020843EC
:1031F00086EA0E011143084340F00786149813999C
:10320000C5E90898C5F828B01329E862199D41F06E
:10321000D2800DF59F60DCAB8CE0FF2804BF98F8EE
:103220000C20022A40F00E8105F108011AA8B022F4
:103230001C4656F03BF842F041FB40F09783D8F82B
:10324000040042F0F2F884E80E00B968E06004F18E
:10325000100001F03FFED4E90601D4E90423CDE9D2
:103260000001DCAC41F0E7FE9DF87063FF2E40F0FA
:103270008886E01D1AA942F067F9042000F091BE8B
:10328000FF2804BF98F80C20032A40F0DB800DF1E2
:10329000680B05F10801B0221C46584656F006F8A6
:1032A00042F00CFB40F06283D8F804000BF12002DE
:1032B0008168D0F80CA0D0F80490D0F800800020ED
:1032C000CDE9001ACDE914214B46CDE9022B424647
:1032D0000490C6A828F03AF9D4E902E3DDE9C65221
:1032E000D4E900C1DDE9C860514058408CEA0502CC
:1032F00008438EEA06011143084340F0978504F124
:103300001003159DC4E908890FCBC4E90A5A149C1F
:10331000CDF800B001AE86E81003CDE9045A28F0DC
:1033200055F9199D95F80811022941F062800DF5B3
:103330009F601AABDDF85CB0169A5946FEF7B0FFF5
:10334000DDF860A000F04FBCFF2804BF98F80C2007
:103350000C2A77D105F10801DCA8502206F11004EF
:1033600055F0A4FFD8E9010104F1280A0D90206965
:10337000129060691190A0691090E0690F90206A26
:103380001390606A1490606B0E9005F58F709AE848
:1033900000071591D4E90E6B41F07FF8D5F81421A0
:1033A00020F07F40D5F81111CDF833214C91D5F89C
:1033B0000D21D5F80A11CDF86B201A91CDE9086BD3
:1033C0000A904CA80B901AAD129802901198039095
:1033D000109804900F98CDE9050A0E980C95CDE948
:1033E00000890790D6A8DCA9DDE9132328F04AF864
:1033F0001598102806D1D6A90D982FF06FFC00283B
:1034000000F01E854FF00B080326199DDDE917BA61
:103410000DF59F60BEA90630122256F013F8FF206A
:103420008DF8FD848DF8FC64DCAE8DF8F8040DF5A4
:103430009F6801F0DAB9FF2804BF98F80C20032A2E
:1034400000F07D82FF2809D198F80C10042926D0BD
:1034500043F0F5F80D2900F00E8115E10539082932
:1034600000F20481DFE811F009003D0002010201D1
:10347000980002010201E700FF000DF59F68012896
:1034800000F0B282DDF85CB0022840F0FD8040F62A
:103490000340DDF860A0ADF8FC0401F0A8B9DDF848
:1034A0005CB0D8F80800002801F0C784D8F8040000
:1034B0000478294837F07EF9601EC0B2102828BF72
:1034C000082420463FF050FA37F0DCFA03208DF84C
:1034D000FD448DF8FC040DF59F68DDF860A001F057
:1034E00086B9032840F0C2800DF55C7A05F1180119
:1034F0009022504655F0DAFE0020D8F804100DF165
:103500006808179BCBE90C105246CBE9101000213C
:10351000CBE90E00CBE91200B868009040469DF858
:103520003162FEF735FE9DF86840FF2C00F06383A2
:103530000DF59F6243F024F941F073FE8DF8FC44D1
:10354000FF20DDF860A08DF8F804DDF85CB001F034
:1035500049B900BFC0FFFF7FDD00000040F3050058
:10356000DE00000052010000560100005D01000075
:1035700055010000460100004E0100003D310400ED
:10358000482E06005F0100004901000053010000C1
:10359000AF00000044010000042867D10DF1680964
:1035A00005F10801B02243F0D6F8D8F8010008F17F
:1035B000210414902022D8F8050021461590D8F84F
:1035C00009001290D8F80D0013904CAE41F026FE81
:1035D0005FF8781020462FF081FB40B95FF8841027
:1035E00006F110002FF07AFB002800F0978449467E
:1035F000DDF83C91DDE94DA82031DDF830B1002047
:10360000CDE90089CDE9021153460490DCAC5A465D
:10361000204627F09BFF06F1100120462FF05EFBAD
:10362000002800F07F84FF208DF8F80440F203406A
:10363000ADF8FC04D5E2C8B998F80100002800F004
:103640005C83DDE917BA0DF59F6895F823018007C3
:1036500000F1CF8595F822110DF59F605A46FEF7CF
:10366000A5FC01F0C0B8002800F0B78142F0E7FFE8
:103670000138022808D20DF59F608CA942F0EBFFBB
:10368000DDF860A001F0AFB81520DDF860A08DF87E
:10369000FC0401F0ACB8D8F80800002801F0CF8392
:1036A000D8F8040004785FF8480137F083F8601E0A
:1036B000C0B2102828BF082420463FF055F937F043
:1036C000E1F98DF8354203206EE042F0F7F840F062
:1036D0005C81D8F804108CACA01C41F0BAFE0DF54A
:1036E0009F6805F1180108F1060041F02DFF41F037
:1036F0001BFF04204DE10DF59F604946D8E901A963
:1037000017912BF05EFD9DF8210502281ED00D209B
:103710000DF59F688DF8F8040DF55C7B179843460E
:10372000816A826B58462BF077FC9DF87003FF2866
:103730000BD09BE85E0040465EC05FF8D80137F0D2
:1037400039F841F09FFF37F09DF9199D0DF59F6005
:1037500051464A4640F06AFF9DF8F844022C40F07A
:103760001D81DDF85C900A208AE2072908BF042841
:1037700000F09281421E032AFFF46DAB98B90A292A
:1037800011D198F80100002800F0F68095F81D018D
:10379000800700F1628295F82201DCAE80074CBF01
:1037A0000B200D2075E115208DF834020DF59F6872
:1037B0008CA808F10401043090E87C000E207CC144
:1037C000DCAE8DF8F804301D08F104012FF088FC00
:1037D0000C20D9F828108DF870033346D9F838201A
:1037E0004CAC20462BF018FC42F066FD0DD0304664
:1037F00094E86E006EC0DCAE5FF8940236F0DAFF3B
:1038000030463EF0F1FF37F03DF9199D0DF59F610F
:10381000284642F020FF8CAC294620463FF000FDB0
:10382000FF208DF870039DF83002FE2818BF264651
:10383000189D96E81F001FC501F017B842F03EF82A
:1038400040F0C480D8F804100DF59F6808F102001C
:1038500041F0FFFDB01D05F1180141F075FE01209A
:1038600031468DF8F90408F11200B62255F0EAFD50
:10387000DDF85CB00620ADE04CAE169A414630460D
:103880002BF0F3FB42F018FD0ED00DF55C7B96E8B3
:103890003E0058463EC05FF82C0342F0B2FE584648
:1038A0003EF0A2FF37F0EEF8169805F1E00EAC46B8
:1038B0005446016817914168149181681591D0F8B8
:1038C0000CB09EE86F006FC4DDE9142117989CF8D6
:1038D000F8E0DCAECDE9E01B06F11801CDE9DE022F
:1038E0008DF871E39AE87D007DC10B20DCAE8DF888
:1038F000A1938DF8A0E333468DF87003D8F8281013
:10390000D8F838204CAC20462BF086FB42F0D4FC93
:103910003FF47BAF304694E86E006EC0DCAE5FF8DB
:10392000B0036BE706F10800169BD8E90112CDE958
:1039300000308CA84B46FEF709F9FFF790BA05F165
:103940000801DCA841F094FF41F0B8FF0ED1D8F88F
:10395000040041F06AFDFF90FCA80EC0DCAB0DF541
:103960009F60DDF85CB042F0D4FC70E1FF20DDE93F
:1039700017BA42F007F96CE15FF8080436F026FF49
:1039800042F004FC40F6037052E0052042F04DFE88
:10399000FF20DCAE8DF83002FFF766BA9DF8FA64BE
:1039A000DDF85C90300700F16481032068E15FF886
:1039B000380436F0FFFE42F06AFC37F063F8052069
:1039C0000DF59F688DF8340201F0D4B842F085FE01
:1039D0000DF59F68DDF860A09CE298F801000028D2
:1039E00000F099811120F1E0DDF85CB009F10803E5
:1039F0000DF59F6042F08DFC42E640F603400DF568
:103A00009F68ADF83402D3E640F60320ADF83402E7
:103A100042F0BCFB1CE340F60330ADF8340242F048
:103A2000B5FBD146FFF71BBA42F0B0FB40F60320CE
:103A3000ADF83402FFF713BA42F0A8FB05208DF869
:103A40003402FFF70CBA9DF8690000287FF444AAFD
:103A500098F80C000C287FF43FAA41F02FFF40F0AB
:103A6000DD85D8F804108CACA01C41F0F2FC0DF5FB
:103A70009F6805F1180108F1060041F065FD41F06D
:103A800053FD032000F0CEBD05208DF83402FF2049
:103A9000DCAE8DF8300216E3CDF85C9005F108013C
:103AA0004CA841F0E5FE08F121060DF546792022EB
:103AB000484642F06FFA5FF85C15D8F80D00159093
:103AC0003046D8F80140D8F805B0D8F809A095F8E4
:103AD0001E513FF02BFB40B95FF8801509F1100033
:103AE0003FF024FB002800F03084CDE913BA0DF537
:103AF0005C7ACDE91154C6AB0DF53E780FCB109032
:103B000042F010FB0F914146BE9050460E920D932D
:103B100034F064FC0DF59F64002651464FF4B872F2
:103B20002046CDF8DC64CDF8D864CDF8D464CDF867
:103B3000D064CDF86866CDF86C66CDF87066CDF8C7
:103B4000746655F0F9FC0DF55C7A21464FF4C072AD
:103B5000504655F0F1FC8DF8F0644CA800F12004BB
:103B60005FF8E895504620222146C8475046214636
:103B70002022C8470DF59F6B504601228DF8F8644E
:103B80005946C847584651464FF4C27255F0D4FCC6
:103B90009DF878A60BF5B8715FF81C3610225046D8
:103BA0003EF0DAFC002971D000F8016B0139F9E729
:103BB00042F093FD8DF8F80449E040F60330ADF88B
:103BC000FC04FF208DF8F8040BE00120DDF860A074
:103BD00042F035FD8DF8F80400F04BBEFF2041F0B7
:103BE000D1FFDDE917BA0DF59F6800F0FBBD052098
:103BF0000DF59F680EE1DDF860A0F00700F065812B
:103C000009F1020041F011FC8BE80E00CBF80C002A
:103C1000DBE90601DBE90423CDE900011AAC41F040
:103C20000AFA9DF868600DF59F68FF2E00F0A484E5
:103C300008F10500611CD6E35FF8B80636F0BAFD5E
:103C400042F025FB36F01EFFFF2041F09BFFDDF820
:103C500060A00DF59F6800F0C6BDD9F83CA00AF140
:103C600008030FCB41F0BCFF00F0F68282AC0FC41A
:103C7000F7E29DF8FB84B8F1100F80F03782062040
:103C80008DF83502032042F0D0FC91E5A7F13C0607
:103C90000024584647F83C4C31468DF8784647E9B1
:103CA0000E4447F8304C3FF0A9FAA7F12C093146F1
:103CB00048462FF0A1FA0BF5B076102C0AD00BEB8A
:103CC0000400013490F8601190F87021514080F8A0
:103CD0006011F2E7BAF1100F40F03182DDF850A028
:103CE0000DF59F68DDE9124B0020102800F040829E
:103CF00019F8001041F000FDF7E75FF8740736F09F
:103D000065FD40F60370DDE917BAADF8FC040DF56A
:103D10009F6800F06CBD0D200DF55C788DF8700388
:103D20000DF1680917984346816A826B48462BF06B
:103D300073F942F071F80CD099E86E0040466EC0FD
:103D4000DCAE5FF8B80742F05CFC41F09BFC36F05B
:103D500099FEDDF860A0E00700F04D825FF8D00723
:103D600036F034FDDCACDDE9161B5A462046FEF782
:103D70009BF99DF870630DF59F68FF2E00F0578446
:103D800008F10500611C41F04CFA8DF8FC6400F06C
:103D9000AABF0120BDE00DF59F6805F1180108F1EB
:103DA000070041F0D1FB092041468DF830028CA874
:103DB00041F0D2FADCAEFFF75AB85FF828089B460C
:103DC00015953546664636F0F5FC50463146424676
:103DD0004B463EF017FC159B284621465A463EF0BE
:103DE00011FC36F04FFE42F0D1F940F20340ADF83D
:103DF00034022DE19DF872130DF59F68DDE917BAC5
:103E00000A0700F1CD820320D0E2199D0DF59F68CD
:103E1000DCAE032004218DF8FC04FF208DF8FD1496
:103E20008DF8F804DDE917BA00F0DDBC199D0DF539
:103E30009F68DDE917BA40F60340ADF8FC04F3E2F1
:103E4000DDF864B0AC4602269BF81A119BF82051AD
:103E50009BF8080101F0030105F0030581F0010161
:103E6000022885F0010508BF01262943B1FA81F136
:103E7000D4E900234909D4E902040391654617995E
:103E80008DE8510060462BF04DF80DF5467AA91CDF
:103E900012229DF8686050469DF869809DF8914017
:103EA00055F0D0FA022C40F0C482BEA8BAE82E0029
:103EB000FF2E2EC05D46BAF80010DDF860A0DDF8D8
:103EC0005CB001807FF4A4AAF0E20DF59F68DCA944
:103ED00008F1080041F0CCFC0020CDF8FC040720DC
:103EE000FFF731BBDCAC594620462BF018F99DF8A2
:103EF0009963FF2E40F0DD820DF5987C94E86E000A
:103F000060466EC008F104009CE83E003EC0199D6A
:103F1000FF20DCAE8DF8F80400F067BCDDE94CBA98
:103F2000DDE94E891AA8129E00F1700495F81E0171
:103F3000002808BF0646159908BF0146149A08BF15
:103F40000246139B08BF0346C4E90821B968C4E9C7
:103F50000A63C4E90CBAC4E90E89DCA800F0BAFF10
:103F6000DDE9DE01DDE9DC23C4E90023C4E9020167
:103F7000CDE90001DCAC41F05EF89DF87063FF2EE6
:103F80000AD00DF59F68611C40F0CEFFFF208DF830
:103F9000FC648DF8F8040EE0E01D1AA941F0D4FA93
:103FA0000A200DF59F688DF8F80408F101002146FC
:103FB000B72255F047FADDF860A000F013BCDDE948
:103FC0001010702241EA00484CA9DCA855F06EF9A7
:103FD000149A1399100284E8400A40EA1165129875
:103FE00040EA012315991393080240EA12624FEA4E
:103FF000082040EA11681492C4E905522022C4E95D
:1040000003A3C4F81C80DCAC04F19000C6A955F0F1
:1040100019FA04F12000149A8DE8510A2946434602
:104020001398CDF814A027F0D1FA199991F8081136
:10403000022940F062820DF59F64DCA9E01D41F089
:1040400083FA092021468DF830028CA841F084F9CA
:10405000DDF85C90FEF703BF1794D6A800F10208C4
:10406000291D102241F00DFC82A84146841C40F01D
:10407000FAFE0DF508782146102241F002FC0DF5FC
:104080005C795146424642F069FB9DF87083B8F175
:10409000FF0F00F07B8299E85E0028465EC0DFF8E3
:1040A000F40D36F087FB41F000FC36F0EBFC8CA8F9
:1040B000DCAE0530711C41F0B4F8FF208DF834827D
:1040C0008DF83002D1460DF59F68FEF7CBBEE01D9E
:1040D000DCA941F039FA092021468DF830028CA87C
:1040E0000130B72255F0AEF9FEF7B9BEBDF8FCA419
:1040F0009DF8F9945FEA8A7042BF95F81C0140F080
:10410000020085F81C015FEA8A5040F17584179817
:10411000C36BD3E902E1D3E9042341EA030C4EEA7D
:10412000020050EA0C0000F05184CDF8F8E4CDF81C
:10413000FC14CDF80025CDF8043500F050BC16F87D
:104140000A00A7F12C0180F0800006F80A00404622
:104150002FF052F8DDF850A00020DDE9124B1028B6
:1041600004D018F8001041F0C7FAF8E70DF59F6881
:104170000DF59F6031463FF041F80FCE41F0D2FF80
:10418000BE90C6A800F11001BEA83EF0CFFFDCAE85
:10419000119DDDE90F9C0028DDE90D3E00F0DC807B
:1041A00041F0F4FF40F20340ADF83402F4E00DF5C5
:1041B0009F68DCA908F10800602208F1680555F045
:1041C00075F8149805F10C01286030221398686086
:1041D0001298A8601198199D81E8510608F188008D
:1041E0001AA955F02FF91598CDF8FC040820FFF70F
:1041F000A8B90E20EEE4DFF8780C36F0E7FA1020CC
:10420000E6E4DDF860A0002800F015820A200DF534
:104210005C788DF8700341F0BBFCD6AE41F091FCA8
:104220009DF85843FF2C40F0738208F106001AA94C
:1042300041F08AF90DF59F620620ADF8F804414679
:1042400002F112009046B622CAE208F107001AA94C
:1042500041F07AF90320BBE20020CDE98400CDE9EA
:1042600082000DF59F6882A9404603F0D7F99DF8BA
:10427000F844FF2C52D14CA84E4600F1030908F136
:104280000401102241F00BFBD6AC494640F0EBFD97
:104290000DF59F6831462246179640462AF00EFEDD
:1042A0009DF8F844FF2C40F02281DAF80000C107A5
:1042B00000F06A82DAF80410000A0DF59F660A0E13
:1042C0008DF8F6210A0A40EA01607C90ADF8F421ED
:1042D0007CA9304603F0ECF99DF8F844FF2C40F03F
:1042E0003484311D484641F0B4F8BEAE494640F032
:1042F0009AFCDDF85C900DF59F68324640464946D1
:104300002AF0DCFD9DF8F844FF2C3FF444AA08F1A4
:104310000101C6A840F085FF00F021BC4CAD08F1BA
:104320000101132240F074FFC6A842F0DEF800F04D
:1043300016BC8CA80DF59F61083041F099FA8D9656
:1043400005208DF83002FEF78ABDDDE9C6C90DF5FE
:104350009F68DDE9C8E3DCAE4CA8903015F00101A0
:1043600002BF8A468B460C46159A08BF0A46C0E92A
:1043700002A2C0E9004BB022C0E904C9C0E906E3CB
:1043800008F107004CA955F05DF8082041468DF86A
:1043900030028CA840F0E0FFDDF85C90FEF762BDD3
:1043A0009DF873230F2A00F2BC8106208DF8FD04CE
:1043B0000320FFF76CB9B8684C1C0090DCAADDF84C
:1043C0005CB00DF16808214640465B46FDF7E0FE13
:1043D0009DF86860DDF860A0FF2E00F0E6810DF525
:1043E0009F6242F0CDF940F01CFF8DF8FC64FF2085
:1043F000E5E1DDF85CB009218DF870130DF55C780E
:10440000DD9041F0C5FB4CAE41F09BFB9DF8304187
:10441000DDF860A0FF2C00F0D5810DF59F68711CC0
:1044200040F082FD8DF8FC44FF20DCAE8DF8F804EE
:10443000D9E105F1140C15940DF598792946BCE8DD
:104440003D00CE46AEE83D009CF800008EF800002E
:10445000BDF89600ADF80C02DDF892008290084697
:10446000BAE83C003CC0BAF8002002800BF1D20050
:1044700012228BF8D1808BF8D06054F0E3FFB9E8BA
:104480003E000BF1E4003EC05D4615998BF8F91033
:1044900099F8001001708298CBF8FA00BDF80C0270
:1044A000ABF8FE00DDF860A0DDF85CB00C20FEF794
:1044B000BBBF4CA8DCA942F048F9DDF89A03022EF4
:1044C000C690BDF89E03ADF81C0300F0B3844CA960
:1044D00005F1D00042F039F9C698C5F8FA00BDF8E8
:1044E0001C03A5F8FE000D2085F8F96011E508F120
:1044F0000101C6A840F095FE2FE3DDF85C9009218C
:104500008DF8F8140DF59F68CDF8FC04D9F8281043
:104510004346D9F83820BEAE41F013FB9DF8F8426F
:10452000FF2C00F02F828CA8711C40F080FD8DF8CC
:104530003442FEF768BC4CA8211DC61C40F073FB3A
:10454000C6AC314640F08FFCDDF85C900DF59F66FF
:104550002246304649462AF0B1FC9DF8F8440DF554
:104560009F68FF2C00F01C828CA8711C40F05FFD3E
:10457000FF208DF83442C6E308F10800DCA941F0C1
:1045800077F90020CDF8FC04082018E14CA9484632
:1045900040F0CFFD09F12004C6A9202240F03BFEE7
:1045A000179812228DF8B303BDF80402ADF8B003DA
:1045B0009DF806028DF8B20309F145008DF8B46349
:1045C0007CA954F03FFF09F1570079A941F045FB60
:1045D0005846502154F013FE199890F808010238FB
:1045E00038BF0220C0B2022800F0C982032840F080
:1045F000FA820F200DF59F6841F057FBD6AE41F0CF
:10460000A0FA9DF85853FF2D40F06F8308F1070082
:10461000DCA940F099FF072041465EE5052042F005
:1046200004F8FF208DF83002DCAEFEF71DBCDCAED6
:104630000120FFF7CFBA1AA8D7F80880903015905C
:1046400010301490DF4840F2FF1B4FF0FF398246D4
:10465000404632F04FFF044640460E4632F04AFFD5
:10466000D94D0023A0FB0502E1FB0523A4FB054176
:10467000A6FB05566D184FF00001464152F10002AD
:1046800053F1000024EA0B0341F10001BAEB0303EC
:1046900079EB050379EB060379EB0202D8D3149B7F
:1046A0000022DDF85CB083E80700DA60159BDD903E
:1046B00083E807000821DA608DF87013DBF8281012
:1046C000DBF83820D6AEDCAB41F03BFA9DF858431E
:1046D000DDF860A0FF2C40F03182B8680021009026
:1046E000DCAE1AAA5B4630464FF00008FDF750FDDD
:1046F0009DF87043199DFF2C0AD10DF59F641AA9EE
:1047000004F1080041F0B4F8CDF8FC84A04655E06F
:104710000DF59F68711C40F007FCFF208DF8FC44EC
:104720004DE085F8201105F58F7185F81E0105F51E
:104730008C70BDF874339DF87143A5F8223185F86B
:10474000212185F81F413FF0B3FE85F80911202291
:10475000DBF82C1085F808014CA854F073FEDBF848
:104760003010DCAE402240F059FD0DF168083146B2
:10477000404602F0A9FE41F04FFB00F080820A2083
:1047800003248DF81903A4E20524E6E1DCAD41F031
:1047900068FF29468CA800F1040C91E85D008CE8C4
:1047A0005D002E46FF20FFF774B90DF59F68DCA968
:1047B00008F1080041F05CF8CDF8FC4407208DF8C2
:1047C000F8040FE008F107001AA940F0BDFE05202B
:1047D0000DF59F628DF8F804501C41469046B722B3
:1047E00054F030FEDCAE9DF8F804FF2841D108F10A
:1047F0000400311D90E87C0012207CC1DCAE199DC4
:104800008DF8700308F10400311D2EF069FC0C20B6
:10481000DBF828108DF8F8044346DBF838204CAC60
:1048200020462AF0F9FB41F047FD09D041F0B4FFE2
:10483000DFF8540641F0E5FE40F024FF36F022F99F
:10484000DCA9284641F007FF1AAC294620463EF075
:10485000F8FCFF208DF8F8049DF86800FE2818BFCA
:10486000A04698E81F008AE81F000DF29C6D40F0FA
:10487000CCBC0DF59F69DCA8C822494654F016FD52
:104880009DF870031228BDD01128D9D195F8F910E0
:10489000022904D1DFF8E80535F098FFD0E795F854
:1048A0001A0100F00300012802BF95F8200100F072
:1048B0000300012806D095F8F8E00DF1680B4FF0E1
:1048C000020A2FE015910DF59878DDE91661404652
:1048D00032462AF0CAFB41F0EFFC0BD098E83E00CC
:1048E00048463EC0DFF8900541F08BFE41F030FFB6
:1048F00036F0C8F8306805F1E00E14900DF1680B41
:104900007068A84613905C46D6E902AC9EE86F003A
:104910006FC4514698F8F8E00DF59F68139A149803
:10492000DDF854A0CDF80CC509F1180CCDF804251C
:10493000CDF800058DF8F9E4CDF808159BE87B006B
:104940008CE87B000B204B468DF8F80417988DF807
:1049500029A58DF828E5816A826B4CAE41F0F1F80B
:1049600041F0AAFC0BD096E83E0048463EC0DFF876
:104970000C0535F01FFF41F0EBFE36F083F8DDE962
:1049800018A55DE708F10600DCA940F0DDFD032075
:10499000ADF830028CA812304146B622FFF7A2BB18
:1049A000119C132C40F0A781F01DDCA940F0CCFD38
:1049B000092031468DF830028CA840F0CDFCFEF77E
:1049C00050BA00BFFFC5FCFF40420F000020CDF8E9
:1049D0000405CDF80005CDF8FC04CDF8F804DFF8A7
:1049E00094140DF59F602EF079F928B195F81D010A
:1049F00040F0020085F81D0195F819010C21A5F879
:104A000022A105F58C7B85F82181032885F820619A
:104A100085F81F9185F81E4108BF0821DDF85C90DC
:104A2000D9F8380090F8702290F87132881885F81B
:104A30001A0105F58F7013B101218BF8001059464A
:104A40003FF036FD199A82F808010DF59F6082F853
:104A50000911012102F0C2FC9DF8F8A4BAF1FF0F80
:104A600043D19DF80865DDF80445BDF80905ADF8AA
:104A7000180331469DF80B058DF81A032046DDF822
:104A8000FC84DDF8009524F09FFE40F001FF5846BD
:104A90001A463FF0BBFDC0B2022848D1CDF8FC94C5
:104AA0000DF55C79CDF8F8840DF59F68BDF8180315
:104AB00017994246ADF805059DF81A038DF80705CC
:104AC00048468DF80465CDF800452AF0F7F99DF8C1
:104AD00070A3BAF1FF0F6CD1DDF85C900DF59F6803
:104AE00001208DF83002FFF765B99DF808259DF883
:104AF000FB048DF88023DDF804258DF87303BDF8E1
:104B0000F904DF92DDF800259DF80B15ADF871036F
:104B1000BDF80905DE92DDF8FC24ADF830018DF812
:104B20003211DD928DF88313ADF881034EE04046DB
:104B300049463FF041FD4FF0050A45E00DF59F68FD
:104B4000711C40F0F1F9199DE7E54CAD711C132281
:104B500040F05EFBC6A841F0C8FCDDF85C90DCAE1E
:104B60008DF834428CA8C6A9053013220DF59F6834
:104B700054F068FCFF208DF83002FEF773B91998E5
:104B800090F80901002800F0CE800A200DF59F68FA
:104B900041F08BF8D6AE40F0D4FF9DF85853FF2D6E
:104BA00040F0A38008F10600DCA940F0CDFC042011
:104BB000EEE699E85E0040465EC0BA4835F0FAFD80
:104BC00040F060FD35F05EFFDDF85C90DCA98CA85C
:104BD0000530013113220DF59F6854F033FC8DF838
:104BE00034A2FEF7E5BDB9680BF1100000F072F9D0
:104BF000DBE906010025DBE904238DE803020DF55E
:104C00009F60CDE9034526F0A1FCDDF804150DF504
:104C10009F68DDF8F824DDF8FC34DDF80005CBE909
:104C20000201CDE900014046CBE9002302F000FC7F
:104C30009DF8F854FF2D6AD182A808F10401C61C22
:104C40003FF0F1FF88AC314640F00DF90DF5567993
:104C50005146224641F082FD9DF85853FF2D40F009
:104C6000808008F10700DCA940F06EFC022041467C
:104C70008DF830028CA840F06FFBFEF7D2BEBEA8C4
:104C800008F10401861C3FF0CEFFD6A83146841CF3
:104C900040F0E9F80DF50279214610225E4640F019
:104CA000FEFD0DF5467B31464A4658462AF006F988
:104CB0009DF81843FF2C3DD09BE86E0040466EC027
:104CC000684835F077FD40F0DDFC35F0DBFEDDF8BF
:104CD0005CB0C6A90DF59F6808F10500013140F0F0
:104CE000A0FA8DF8FC44DCAE81E58CA8711C05307F
:104CF00040F097FA46E08CA8DCA9083040F0B8FDF7
:104D0000601C8D9005208DF83002FEF7AAB882AEA7
:104D100008F10101132240F081FAD6AC3146601C43
:104D200040F07FFA29E0DAF80000D146A0B3D9F8C4
:104D300004104EE008F103004CA940F0FAF90DF51B
:104D40009F64DCA904F1240040F0F2FE02204146F9
:104D50008DF8F804601C2322A04654F073FBFEF784
:104D6000F4BB99E85E0040465EC04D4835F022FD38
:104D700040F088FC35F086FED6AC8CA8611C40F073
:104D800056F9D146FF20DCAE0DF59F688DF8300254
:104D90008DF83452FEF766B8BD68314B3F4CD5F8FC
:104DA000000140280BD32846002126461C4625F04A
:104DB000A5FCD5F8000140284AD223463446421CBF
:104DC00055F82000C5F80021A0FB0301A0421046C1
:104DD000E7D80BF140000BF130020026CDF8FC14AF
:104DE000C0E900160DF55678C2E900160DF59F636F
:104DF000C2E90266D9F82810D9F83820C0E902665D
:104E000008208DF8F80440462AF006F99DF858531A
:104E10008CA8FF2D03D10830DCA9FFF78EBA05302E
:104E200008F1010164E7194B00E00B4B0120072159
:104E300034F0B6FE0C4835F049FB124A06E01A4A37
:104E400004E0134A02E0094A00E0044A3FF050FE41
:104E5000114A402134F0EAFE5CC105004CC1050056
:104E600040420F005C0100003CC105002CC1050060
:104E70004A01000040F305005E01000054010000FB
:104E8000600100001CC1050057010000642C0600F1
:104E9000542C06005B01000010F405007F3DF1FF7B
:104EA0005801000051010000FCC00500D0B502AF60
:104EB00092B0BC688DF81020FF228DF80420CDE957
:104EC00002343A69FB68009201AAFDF7A5FC12B012
:104ED000D0BDD4D4F0B503AF2DE9FF07DFF888903B
:104EE00000260D468046EA46CDE90266CDE9006619
:104EF0000F2E18D8D5F80041402C07D328460021A2
:104F000025F0FCFBD5F80041412C24D23046514617
:104F100010224B463DF020FB40F05FFC2044C5F8DA
:104F200000010E44E4E704A89AE81E001EC004AB8A
:104F300040F0DAFA1FBFA8E80F0008B0BDE800078C
:104F4000F0BD084835F036FC04A83DF0C3FD35F04F
:104F500099FD35F0E5FC054B20464021402234F018
:104F60001FFE00BF66010000A833060000F4050024
:104F7000F0B503AF2DE9000FB1B0054688680024F5
:104F8000884600288C6050D0D8E9046B0A90B86835
:104F9000D8F80C1000280895099150D03046594691
:104FA00027F000FF2BAC3FF062FE3EF05FFE2D9835
:104FB0000E3405900A222C98214606909DF8AD00EB
:104FC000BDF8B8A0BDF8AE509DF8AC90079017A8FA
:104FD00054F038FAB9F1FE0F00F0A08117A920466D
:104FE00041F02DF80598B9F1FF0F2D9006982C90FF
:104FF0000798ADF8B8A0ADF8AE508DF8AD008DF8BB
:10500000AC9000F0978101220020B9F10A0FA9F1BC
:105010000B0188BF52FA81F0002800F0C0800128FF
:1050200000F0CA804FF0000AC6E098F80410D8F8E3
:1050300000002EF088F9AC60297128601DE130462F
:105040005946CDE9062327F0ADFE2BAE40F020FCFB
:1050500030461A463EF00AFE0DF15C0BB11C1622DA
:105060009DF8ACA058469DF8AD9054F0EBF9BAF11C
:10507000FE0F00F05881594611A87CC97CC0162249
:105080000988018059468DF82D908DF82CA00BA829
:10509000023054F0D7F9BAF1FF0F00F050818DF8CB
:1050A0005D900BF102008DF85CA011A91622162468
:1050B00054F0C8F92BA83FF035FA2B9D002D69D08C
:1050C000DDE92CA1FB200DF1AC0B0422CDE91D1074
:1050D00000201F90584603911DA94FF004093DF090
:1050E0007BFD2B9E9DF8B040002E00F0B3800BF1AD
:1050F00005010DF1980B1322CDE9045A584654F0DE
:10510000A1F9DDF89B100DF18C0922910BF107013B
:1051100026980C22CDF8850040F0C1FBD8F800504D
:1051200098F804A0D5E900018DF8844052462096F5
:1051300026F024F91FFA80FB48463DF0B7FD864B68
:1051400002460E468B4528BF8B46114658463246CE
:105150003DF0A2FDCDE900012BA817AB0699079CF5
:105160004246A0479DF8AC00FF2800F08980089EC9
:105170009DF8AF1006F10805F171BDF8AD10A6F865
:1051800005102CAC30711ECC1EC5DDE9045A002080
:1051900030606AE00899002008600C7169E0B9F19C
:1051A0000A0F3FF63FAF0120AA4600FA09F040F28D
:1051B0000C4108423FF436AF3046594627F0F2FD25
:1051C000002900F0C68098F80450D8F800600DF16E
:1051D0005C080078ADF860A00DF12C0AF9682A4649
:1051E0008DF85D0003208DF85E1031468DF85C006F
:1051F0005046434600F0BCF89DF82C40FF2C0BD0E5
:1052000011AD0AF10101132240F002F8089E29466F
:1052100040F070F800251AE011A80AF10401C41C3E
:105220003FF021FE0DF12C0A2146102240F018FD1E
:10523000304629462EF087F8054608F103000C4653
:10524000514640F006F9089E414640F053F834714B
:1052500035600EE008990120487100200860E007E1
:1052600018BF4FF00D0981F80490284651463FF0D1
:10527000A3F9DDE909103FF09FF931B03FF0C5BF58
:10528000089E2C98012809D1DDE924212D98521A75
:1052900082420ED24FF48270B08076E728465146A3
:1052A0002EF051F8002231713060B260DDE9040166
:1052B000DDE70C1820A8D146AB4621463CF04EFB5A
:1052C000DDE9045AC0B2022816D120A804214FF00B
:1052D00004083CF043FBC0B2022816D1229849468C
:1052E000044458462EF02FF8039AC6E9025AC6E93C
:1052F000042431713060BCE70121C00771714FF0A7
:10530000040018BF0D20307141E701217171C00701
:1053100018BF4FF00D0886F8048038E7134835F0C1
:1053200049FA079803E00E4835F044FA48463DF044
:105330003BFB0AE00C4835F03DFA2BA803E0074898
:1053400035F038FA0BA801F0E9F935F09BFB35F0A0
:10535000E7FA044A3FF0CCFBD0C20500710100001F
:1053600076010000E0C20500720100007701000034
:10537000F0B503AF2DE9000F9BB0044615A8984681
:1053800091460E463FF0CEF8159D002D64D016983C
:105390000DF1540B0690FB2017990422CDE907105C
:1053A00000200594042409905846CDE90369019131
:1053B00007A93DF011FCDDF854A09DF85890BAF112
:1053C000000F57D0029510AC0BF105013FF047FDDF
:1053D000DDF843100C2210980C91E11DCDF82D0042
:1053E0000DAE3FF01BFF8DF82C900BF10400CDF8B3
:1053F00028A098E83E003EC05946FF208DF8540092
:105400003046FCF747F8C0B2022828D10398049A26
:10541000D0E9000125F0B2FF0F9D80B2A84238BF4D
:1054200005460AA829463CF099FAC0B2022816D1CE
:105430000AA804213CF092FAC0B202280FD1059AC2
:10544000FF20029910700C985160069928449160D1
:105450000199C2E9031019E01620207016E001211D
:10546000059AC0074FF00400517018BF0D20029D2F
:10547000107007E00599012048705FEAC97018BFF5
:105480000D240C70069928463FF096F81BB03FF0AB
:10549000BCBEF0B503AF4DF804BD856804686DB1BE
:1054A0004268C66804F10800531B00EB4211B21AAF
:1054B00000EB4310520153F040FE00E0C668701B41
:1054C00020603FF0E2BE80B56F4618B1BDE8804075
:1054D0003FF072B880BDD4D4F0B503AF2DE9000F12
:1054E00089B0818A022959D03149D0E900A9806860
:1054F0000968C90557D1304926F00CF90546D0E9AD
:10550000004B006B05F138080E4601382863404611
:1055100022F04EFE241A6BF10000BAEB040179EB85
:10552000000039D3E9464146484625F089FEBAEBEA
:105530000400049004D0411E684632F0F0F868B1CF
:1055400005ACB24699E84E0020464EC041F0CFF976
:1055500018B1416801394160F8E7564600206C46B1
:10556000D5E90E12891A18BF012195F84020114380
:10557000C9070BD0A96C49B92046414637F016FB44
:105580009DF80000FF280BD00120E9E7C0071CBFF1
:1055900005F1240037F000FB40F076F93FF02DBB19
:1055A000064834F093FF034835F010F935F0B8F9A8
:1055B00004ED00E00C01000010E60500C4EE05005B
:1055C0000168D9B180B56F460D4A817FC07F20291F
:1055D000134601F01F0138BF4FF0A04343EA810199
:1055E000022340F06FF9C1F8003738BF4FF0A042F6
:1055F00042EA8000C0F80037BDE88040704700BF35
:105600000003005080B56F46D0E90012114308D066
:1056100090F88C10032904D10830BDE8804000F0D8
:1056200046BF80BD000610D080B56F46C8B2074A9D
:10563000202801F01F0038BF4FF0A042022142EAAB
:105640008000C0F80017BDE880407047000300509C
:1056500080B56F46016819B1BDE8804000F0F2B82E
:1056600080BD80B56F46C24312061CBFBDE88040B6
:1056700000F0EBBF80BDD4D4D0B502AF04460068C3
:1056800050B9002020734FF0FF302060201D35F00E
:1056900055FE3FF0D7FED0BD044835F08BF83CF006
:1056A000C9F935F0EFF935F03BF900BFF100000022
:1056B00080B56F4690F87510042918BF80BDD0E9F9
:1056C0000010C968BDE88040084780B56F46016892
:1056D000012918BF80BDD0E90110C968BDE880402C
:1056E000084780B56F4690F87510032918BF80BD34
:1056F000D0E90010C968BDE880400847F0B503AFA5
:105700004DF804BD0A460646D0E9000124F05CFECF
:105710000C461249054606F576703CF09DF90E469A
:1057200095F85E12A1B1013985F85E12090604BF31
:1057300095F85C12042903D040F0A6F83FF069BA4E
:10574000103041F20131A5F85C1235F0F7FDF3E7B6
:10575000034835F03BF835F0E3F800BF94F105005D
:105760006E01000080B56F46014640684A7A00F538
:10577000A3601AB1BDE8804021F0BABC097ABDE847
:10578000804021F099BC80B56F4680BDB0B502AFB6
:10579000456865B10289006840F013FC38B10C46D9
:1057A000D0F84012294440F0F8FB3FF04BFEB0BD6A
:1057B000B0B502AF88B00446D0E9062043690020A6
:1057C000009002AD21462846FFF7D2FB2846FFF79E
:1057D0003FFF204608B0BDE8B04000F077B8F0B514
:1057E00003AF4DF804BD066804460579D6E900010B
:1057F0002A4625F0EEFDD4E902010A6921469047C8
:10580000304629465DF804BBBDE8F040FFF776BF9F
:10581000B0B502AF88B00446D0E906204369012143
:1058200094F82000CDE9001002AD21462846FFF78C
:105830009FFB2846FFF70CFF204608B0BDE8B040AC
:1058400000F044B8F0B503AF2DE900078AB0D0F8F6
:1058500000A0044686680020A06036B304F10C0066
:105860000DF1140808F1080190E82C002CC194F8FF
:105870000490DAE900014A4639F0D8FF0A68B0F826
:105880005802013A0A600AF57E71ADF814006846C4
:105890004246069624F04CFD019840B102993EF034
:1058A0008BFE094834F092FF01E094F804905046D2
:1058B0004946FFF723FFE16800200AB0BDE8000772
:1058C000BDE8F040FFF7FFBDB3000000D0B502AF68
:1058D0000446D0E90201FFF7F6FD21792068BDE812
:1058E000D040FFF70BBFD4D480B56F4602C8DFE8C5
:1058F00001F002020206BDE88040FFF759BFBDE893
:105900008040FFF785BFD0B502AF24F063FE68B1D9
:105910000C4690F86F120022012980F86F2204BF14
:1059200000F5BC7035F00AFD3FF08CFDD0BD80B5B0
:105930006F4600F5A3600021BDE8804021F0BCBBAC
:1059400080B56F46017B052918BF032904D11430A7
:10595000BDE8804000F08CBA80BD80B56F4690F8FD
:10596000441031B1032918BF80BDBDE88040FFF766
:10597000F9BE3830F9E780B56F46C0B2BDE8804067
:1059800050F0A8BC80B56F46054800210122016097
:105990000449425001680029FCD00021016080BD0B
:1059A00014710040F4FEFFFFF0B503AF4DF804BDE5
:1059B00004460025032D0FD00026802E09D0A01903
:1059C0000179033901299CBF083000F027FE2036F9
:1059D000F3E780340135EDE73FF057BCD0B502AFB7
:1059E000044690F80C09032805D040B904F56C7002
:1059F00000F0A5FD03E004F58E6000F02FF8D4F868
:105A0000C00238B994F8D202042804BF04F53570F6
:105A100000F0DAFDD4E90C01084306BF94F8440015
:105A20000328D0BD04F15000BDE8D04000F03CB9DF
:105A300080B56F46017C032918BF80BD1430BDE8D6
:105A4000804000F0EBBDD0B502AF044600F0E6FDAB
:105A500004F11800BDE8D04000F0E0BDD0B502AFC1
:105A6000044690F8E403042805D005280DD104F578
:105A70007A7000F051FD94F8E30318B104F5287032
:105A8000FFF732FF002084F8E30394F81A0104289A
:105A900004BF04F5A87000F0F6F92046BDE8D04038
:105AA00000F04DBD0168426C8A429EBF002101603A
:105AB000704780B56F46024B10460A4634F070F8C6
:105AC000D8F805000168426B8A429EBF0021016040
:105AD000704780B56F46024B10460A4634F060F8B6
:105AE000D8F8050080B56F4680BDD4D480B56F4628
:105AF00009490968C9050AD1094925F00BFED0F802
:105B0000E820013AC0F8E8203FF0B8FB80BD034828
:105B100034F05CFE34F004FF04ED00E00C01000002
:105B200000E6050080B56F4609490968C9050AD134
:105B3000094925F0EFFDD0F80821013AC0F8082105
:105B40003FF09CFB80BD034834F040FE34F0E8FE9B
:105B500004ED00E00C01000000E6050080B56F4692
:105B600009490968C9050AD1094925F0D3FDD0F8CA
:105B7000F020013AC0F8F0203FF080FB80BD0348E0
:105B800034F024FE34F0CCFE04ED00E00C01000003
:105B900000E6050080B56F4608490968C90508D1C7
:105BA000084925F0B7FD026C013A02643FF066FB3C
:105BB00080BD034834F00AFE34F0B2FE04ED00E08C
:105BC0000C01000000E60500F0B503AF4DF804BD80
:105BD00086B00D4D00216C460126049006300291DE
:105BE0000091059020462DF0C0F850B1007829466C
:105BF0003FF068FE28BF01F5407106FA00F008602A
:105C0000F0E706B03FF041BB0C05005080B56F4691
:105C100090F88810032918BF80BD2C30BDE8804063
:105C200000F0C5BC80B56F4690F8C910032918BFB5
:105C300080BDBDE8804000F01BB980B56F4690F88C
:105C4000C810032918BF80BDBDE8804000F010B91E
:105C500080B56F4690F8C610032918BF80BDBDE817
:105C6000804000F005B980B56F4690F8C510032953
:105C700018BF80BDBDE8804000F0FAB880B56F461F
:105C800090F8C210032918BF80BDBDE8804000F025
:105C9000EFB880B56F4690F8C110032918BF80BDDA
:105CA000BDE8804000F0E4B880B56F4690F86C1213
:105CB000032918BF80BD2030BDE8804000F0B4B893
:105CC00080B56F4690F8A610032918BF80BD1C3020
:105CD000BDE8804000F039B880B56F4690F8EC1010
:105CE000032918BF80BD1830BDE8804000F00CB813
:105CF00080B56F4690F8F810032918BF80BD243096
:105D0000BDE8804000F000B880B56F4690F84410C0
:105D1000032908D0042918BF052909D14830BDE856
:105D2000804000F044BC4830BDE88040FFF76EBFC3
:105D300080BD80B56F46817F0339012988BF80BD52
:105D40002430BDE8804000F000B8D0B502AF044672
:105D500090F82700042818BFD0BD04F13C0000F0E3
:105D6000BCFBE06A228ED0E90001BDE8D040FFF71D
:105D7000CABD80B56F46417C042918BF80BD40680C
:105D8000BDE88040FFF778BCD0B502AF044690F87C
:105D90003500032809D0042803D0052818BFD0BD3A
:105DA00003E004F1380000F037FB002084F83400F1
:105DB000D0BDD0B502AF044690F83500032804D01A
:105DC000042807D0052818BFD0BD04F1380000F022
:105DD00009F803E004F1380000F01EFB002084F80D
:105DE0003400D0BD80B56F4690F8501006390729B1
:105DF0000AD8DFE801F00A0F090409140904543035
:105E0000BDE8804000F095B880BD5430BDE88040CA
:105E1000FFF76EBF5430BDE8804000F078B85430D2
:105E2000BDE8804000F019BB80B56F4690F878104F
:105E3000052918BF80BD7C30BDE8804000F0F9BB6B
:105E400080B56F4690F8D610032918BF80BD1C306E
:105E5000BDE8804000F068BA80B56F4690F8201029
:105E6000042918BF80BD2430BDE8804000F041BB4C
:105E700080B56F4690F87C10032918BF80BDBDE83F
:105E80008040FFF7E9BF80B56F4690F834100329D2
:105E900018BF80BD3830BDE88040FFF7D1BFD0B516
:105EA00002AF0446007A032804D0042804D16068B5
:105EB000FFF71CFE00206072D0BDD0B502AF0446D3
:105EC000807C032804D0042804D12068FFF72AFE30
:105ED0000020E074D0BDD0B502AF0446C07A0328DC
:105EE00004D0042804D12068FFF738FE0020207376
:105EF000D0BDD0B502AF0446C079032804D0042831
:105F000004D12068FFF746FE0020A071D0BD80B507
:105F10006F46017C032907D0042918BF80BD1830C3
:105F2000BDE8804000F043BB1430BDE8804000F085
:105F300000B880B56F46017C042918BF80BD1830B9
:105F4000BDE8804000F033BB80B56F46017F042977
:105F500018BF80BD2030BDE8804000F00CB880B58F
:105F60006F4690F85810032918BF80BD0430BDE873
:105F7000804000F010BB80B56F4690F85C1003299C
:105F800018BF80BD0830BDE8804000F004BBD0B52C
:105F900002AF044690F85C00011F042906D30328D1
:105FA00018BFD0BD04F16000FFF7E3FEE06B40686E
:105FB000BDE8D040FFF7BBBC80B56F4690F8EC1150
:105FC000032918BF80BD2030BDE88040FFF7DCBE4C
:105FD00080B56F46017E032918BF80BD1C30BDE827
:105FE000804000F04DBA80B56F4690F8E01103296B
:105FF00018BF80BD1430BDE88040FFF7C5BE80B536
:106000006F4690F82810032907D0042918BF80BDD7
:106010003030BDE8804000F0BDB83030BDE8804091
:1060200000F0DFB880B56F4690F8491003390729B2
:1060300088BF80BDDFE801F00D04081204080606E1
:1060400050300CE0503005E05030BDE88040FFF7A4
:10605000D6BF6030BDE8804000F0C3B85830BDE81E
:10606000804000F097B880B56F4690F8251003295E
:106070000ED0042907D0052918BF80BD3030BDE8F7
:10608000804000F04BB87830BDE8804000F058B850
:106090003030BDE8804000F071B880B56F46C17EF9
:1060A00003290BD0042904D0052918BF80BD203056
:1060B00000E02830BDE8804000F042B82030BDE864
:1060C0008040FFF7D0BFD4D4D0B502AF044690F8DB
:1060D00007010338082820D8DFE800F0050B050B7E
:1060E000100808051A0004F58C7009E004F58870A2
:1060F00001E004F58C7000F04DF803E004F58870C1
:1061000000F06FF804F16000BDE8D040FFF7CABCB2
:1061100004F59C7000F04BF8F4E7D0BD80B56F46F5
:10612000017C032907D0042918BF80BD1830BDE8C1
:10613000804000F005B81830BDE8804000F01EB87F
:1061400080B56F4690F830100339042988BF80BDB0
:10615000DFE801F00A03030F050040300AE0403099
:10616000BDE8804000F03DB83830BDE88040FFF722
:10617000ABBF3830BDE8804000F019B880B56F463D
:1061800090F85C10032918BF80BD6830BDE88040DE
:10619000FFF7D6BF80B56F46017C052918BF0329DC
:1061A00004D11830BDE8804000F01BB880BD80B538
:1061B0006F4690F8231003290ED0042907D0052933
:1061C00018BF80BD2830BDE88040FFF72BBF2830C6
:1061D000BDE88040FFF7DEBF3030BDE8804000F012
:1061E00000B880B56F46017C032918BF80BD183008
:1061F000BDE88040FFF76FBE80B56F46417E032942
:1062000018BF80BD2030BDE8804000F000B880B5E8
:106210006F4690F85110032918BF80BD1030BDE8BB
:106220008040FFF73CBE80B56F4690F849100329C7
:1062300018BF80BD1030BDE88040FFF730BE80B58C
:106240006F4690F880100B2901BF90F82E12032999
:10625000002180F82D1280BDD0B502AF044690F821
:106260002C00411F042915D86820DFE801F0031332
:106270000E0A090094F84800BDE8D04000F016B8B6
:1062800040202044007A00F011F8A06ABDE8D04018
:10629000FFF79ABCD0BD80B56F4690F880100329F7
:1062A00018BF80BDBDE88040FFF7D6BF80B56F4600
:1062B000C0B2032818BF80BDBDE88040FFF762BBB5
:1062C000D0B502AF044690F82000042806D1E0695A
:1062D0000078FFF750FB002084F82200D0BD80B585
:1062E0006F4690F84010032918BF80BD0C30BDE800
:1062F0008040FFF7E5BF80B56F4690F84410032952
:1063000018BF80BD1030BDE88040FFF7D9BF80B511
:106310006F4690F8A810032998BF80BDD0F8900070
:10632000BDE88040FFF7A8B980B56F4690F8B2107D
:10633000032918BF80BD0830BDE88040FFF7C0BC0E
:1063400080B56F4690F8D811032918BF80BD0C3076
:10635000BDE88040FFF718BD80B56F4690F8001289
:10636000032918BF80BD1030BDE88040FFF721BD74
:1063700080B56F4690F8E011032918BF80BD043046
:10638000BDE88040FFF7DCBF80B56F4690F8201075
:106390000339C9B2032988BF80BD044A52F82110CD
:1063A0000844BDE88040FFF7D7BF00BFF0F205000A
:1063B00080B56F4690F820100339C9B2042988BF10
:1063C00080BD044A52F821100844BDE88040FFF720
:1063D000C3BF00BFF837060080B56F46017B0329B5
:1063E00018BF80BD0430BDE8804000F06BB880B5B8
:1063F0006F4690F82D1041B1032918BF80BDD0E938
:106400000601BDE88040FFF75EB8D0E90001BDE8B5
:1064100080403EF0D1B8D4D480B56F4690F82C10AF
:106420000339052918D8DFE801F00317170D081202
:106430003030BDE88040FFF787BD3030BDE8804098
:10644000FFF777BD3030BDE88040FFF794BD3030B6
:10645000BDE8804000F001B880BD80B56F4690F87F
:106460006010052907D0062918BF80BD6430BDE83B
:106470008040FFF780BD7430BDE88040FFF72CBC42
:10648000D0B502AF044690F83D00092807D8012195
:10649000814011F46E7F03D0002084F83C00D0BD11
:1064A0000628FCD104F14000FFF7B6FFF4E780B501
:1064B0006F46017A052918BF80BD1030BDE88040C5
:1064C000FFF7B6BA80B56F464179032918BF80BD82
:1064D0000430BDE8804034F04FBE80B56F4690F880
:1064E0002510042918BF80BD2830BDE88040FFF783
:1064F0004DB980B56F4690F8441039B1032918BFE3
:1065000080BD1430BDE88040FFF771BFD0E90101C4
:10651000BDE880403EF050B8D0B502AF044690F8D8
:106520008800032801D028B1D0BD04F14000FFF756
:10653000E0FF18342046BDE8D040FFF783B980B5AE
:106540006F460179032909D1017C062907D0042966
:1065500004D11830BDE88040FFF7F2B980BD183093
:10656000BDE88040FFF784BC80B56F46017A0429FE
:1065700018BF80BD1030BDE88040FFF715BA80B568
:106580006F4690F89410032918BF80BD1430BDE801
:106590008040FFF76DBC80B56F4690F8501003291E
:1065A00018BF80BD0C30BDE88040FFF798BE80B5B5
:1065B0006F4690F85810032918BF80BD1030BDE811
:1065C0008040FFF798BED4D480B56F46017A033976
:1065D000052988BF80BDDFE801F003170D12081CF4
:1065E0000C30BDE88040FFF728BB0C30BDE8804090
:1065F000FFF744BB0C30BDE88040FFF729BB0C30EF
:10660000BDE88040FFF70EBB0C30BDE88040FFF7CF
:106610002ABB0C30BDE88040FFF73BBB80B56F461E
:10662000017D032918BF80BD0430BDE88040FFF71D
:10663000D3BE80B56F4690F8B010032918BF80BD57
:106640001830BDE88040FFF79ABF80B56F46C0B2F2
:10665000072818BF80BD0846BDE880403DF0A0BFB8
:1066600080B56F4680BDB0B502AF051D0C4634B194
:1066700055E90101FEF727FF013C1035F7E7B0BDF2
:10668000B0B502AF051D0C4634B155E901013DF02E
:1066900093FF013C1035F7E7B0BDB0B502AF00F194
:1066A0003A050C463CB115F83A0C15F8401BFFF7BB
:1066B000CCFF013CF6E7B0BDE0B502AFCDE900018B
:1066C00001A9684632F066FBD0B502AF04460A481D
:1066D00034F04FF82078012806D13EF087FF60683B
:1066E000BDE8D04035F034BB3EF0C5FF6078BDE872
:1066F000D04032F05DB800BF88010000D0B502AFD5
:106700000446044834F035F803492046BDE8D0403B
:1067100034F074B81300000088F80500F0B503AF3A
:106720004DF804BD0446764834F023F82578FF2D53
:1067300015D13EF05BFF784834F01BF82579FF2D2A
:1067400026D13EF053FF794834F013F8207A34F024
:106750004BF8608934F00DF8D4E90301B5E000206E
:10676000002634F041F8674834F003F8B5F10A0028
:1067700098BF3046E0B1012829D13EF037FF634889
:1067800033F0F7FFA08933F0F4FFD4E901019CE076
:106790003EF071FF614833F0ECFFDFE805F00543A0
:1067A000233221505B415F003EF065FFE08811E03D
:1067B0003EF061FF564833F0DCFFDFE805F0066A83
:1067C000575C517A8C6096538E00002062E03FF057
:1067D00056FA4D485DF804BBBDE8F04033F0C9BF40
:1067E00004202DE03FF04BFA4D4833F0C2FF4D48F6
:1067F000257D33F0BEFF681E18BF012033F0F4FF83
:1068000015E03FF01DFD607933F0EEFF208933F095
:10681000B0FFA0795DF804BBBDE8F0403CF096B84D
:10682000072018E03EF0E2FE3F4833F0A2FF04F1FB
:1068300008005DF804BBBDE8F0403CF0FBB8052063
:1068400033F0D2FF04F108005DF804BBBDE8F0406E
:106850003CF0E0B8062033F0C7FF34E0082048E001
:10686000042004E0092033F0BFFF8EE7022033F05C
:10687000BBFF6088AEE73FF0E3FC608883E707205A
:1068800033F0B2FF608833F074FFA08833F071FFFB
:1068900019E0012033F0A8FF608A33F06AFFA08A74
:1068A00033F067FF601C5DF804BBBDE8F0403CF0CE
:1068B000D3B8052033F098FF6088164DA847A0880C
:1068C000A847E088A847D4E902015DF804BBBDE809
:1068D000F04034F013BD062000E00A2033F084FFBE
:1068E000608833F046FFA08874E7082033F07CFF0F
:1068F00060785DF804BBBDE8F04033F075BF00BFC1
:10690000600200006E0200006102000074020000DC
:106910006B02000073A703006F0200006302000017
:1069200065020000730200006402000069020000BA
:10693000D0B502AF0446104833F01BFF2068023880
:1069400038BF0020DFE800F00210090B3EF093FE94
:106950002046BDE8D04036F089BD022000E003208B
:10696000BDE8D04033F040BF3EF040FE2079BDE8A6
:10697000D04036F06DBD00BF4B020000D0B502AF75
:106980000448054CA0470548A04700202146BDE823
:10699000D04008471500000073A70300D80100008D
:1069A000D0B502AF04460A4833F0E3FE2088012840
:1069B00009D13EF01BFE074833F0DBFE6088BDE8DE
:1069C000D04031F0AFBE0020BDE8D04033F00CBF66
:1069D0000F00000086010000D0B502AF0446044855
:1069E00033F0C7FE2078BDE8D04033F0FDBE00BFD5
:1069F00016000000B0B502AF054604483FF035FC74
:106A000028462146BDE8B04033F078BF03000000BF
:106A1000DFB506AF0446684634F0B0FDDDE900128C
:106A2000C4E90012B9689DF80800207204F1100052
:106A300091E81C001CC0DFBDF0B503AF2DE9000FCD
:106A4000A5B002900CA804300B90B86817ADD7E938
:106A500003B99046C00000F1070A4FF0000C002473
:106A600000200992C10740F0E581A145C0F0D48122
:106A7000A9EB04020BEB0401072A07D80026B24257
:106A800055D0885D0A2841D00136F8E7CB1CA2F129
:106A9000080E23F003035B1A04D1CDF828A0A24608
:106AA00000230BE00026885D0A282FD00136B34270
:106AB000F9D1CDF828A0A246734512D8CC58DF4DA5
:106AC00084F00A36AE1B3443CE18766886F00A305E
:106AD000281A30432040C04310F0803F01D10833D2
